:020000040800F2
:1000000000500020817D0008AF580008B15800085A
:10001000B3580008B5580008B758000800000000A1
:10002000000000000000000000000000B9580008B7
:10003000BB58000800000000BD580008BF58000869
:10004000C97D0008C97D0008C97D0008C97D000878
:10005000C97D0008C97D0008C7580008D1580008AC
:10006000DB580008C97D0008C97D0008E558000874
:10007000C97D0008C97D0008C97D0008C97D000848
:10008000C97D0008C97D0008C97D0008C97D000838
:10009000F5580008C97D0008C97D0008C97D000821
:1000A000C97D0008C97D0008C97D0008C97D000818
:1000B000055900081559000825590008C97D000890
:1000C000C97D0008C97D0008C97D0008C97D0008F8
:1000D000C97D0008C97D0008C97D0008C97D0008E8
:1000E000C97D0008C97D0008C97D00080000000026
:1000F0000000000000000000000000000000000000
:0C01000000000000000000005FF808F1A3
:100110000348044B834202D0034B03B11847704796
:10012000E0010020E0010020000000000548064B2F
:100130001B1AD90F01EBA301491002D0034B03B1E5
:1001400018477047E0010020E00100200000000097
:1001500010B5064C237843B9FFF7DAFF044B13B10F
:100160000448AFF300800123237010BDE00100209C
:1001700000000000CC7D000808B5044B1BB1044909
:100180000448AFF30080BDE80840CFE7000000005E
:10019000E4010020CC7D0008014B1868704700BFC7
:1001A0000000002070B50F4B0F4DAB42A3EB0506CE
:1001B00007D00024B61055F8043B01349847A642F6
:1001C000F9D807F003FE094D094B5E1BAB424FEA1D
:1001D000A60606D0002455F8043B01349847A642F1
:1001E000F9D870BD947E0008947E0008947E0008C3
:1001F000987E000870B5860747D0541E002A3ED06E
:100200000346CAB201E0013C39D303F8012B9D0734
:10021000F9D1032C2CD9CDB205EB05250F2C1A46AC
:1002200005EB054534D9A4F1100C2CF00F0603F1B1
:10023000100EB6444FEA1C1CC2E90055C2E9025533
:1002400010327245F8D10CF1010214F00C0F03EBDF
:10025000021204F00F0C13D0ACF1040323F00303DB
:100260000433134442F8045B9342FBD10CF00304C3
:100270002CB1C9B21C4403F8011BA342FBD170BDD1
:1002800064461346002CF4D1F9E703461446C0E750
:10029000A446E1E708B410B5002A04469DB034DB5B
:1002A0004FF4027C4FF00003ADF814C01B934FF6DF
:1002B000FF7C0291069120AB15D0013A049207927F
:1002C00002A91F9A0193ADF816C000F051F9421C23
:1002D00001DA8B2323600022029B1A701DB0BDE857
:1002E000104001B070470492079202A91F9A01932F
:1002F000ADF816C000F03CF9431C01DA8B232360F3
:100300001DB0BDE8104001B070478B234FF0FF30A7
:100310002360F5E70CB410B5204B00291C689CB095
:1003200036DB4FF000034FF402721B934FF6FF7C55
:1003300002900690ADF814201FAB16D001391E9A1A
:1003400004910791204602A90193ADF816C000F070
:100350000FF9421C01DA8B2323600022029B1A70E2
:100360001CB0BDE8104002B07047049107912046D0
:100370001E9A02A90193ADF816C000F0F9F8431CCB
:1003800001DA8B2323601CB0BDE8104002B0704737
:100390008B234FF0FF302360F5E700BF0000002003
:1003A0002DE9F0471D468F680C46AF4216460B6894
:1003B00036D8B1F90CC01CF4906F0ED13D461846EA
:1003C00031462A4600F0BCFD0020A368DF1B2368ED
:1003D000A7602B442360BDE8F0874A69096902EBF6
:1003E00042025F1A02EBD2726B1C52103B449342E2
:1003F00092BF914699461A461CF4806F804611D0F0
:10040000114600F03FFA824600B33A46216900F0F7
:10041000B9FAA38923F4906343F08003A38105E034
:100420002F46CCE700F082FB824658B10AEB070367
:10043000A9EB0707A760C4F810A02F46C4F81490D2
:100440002360BCE74046216900F012FB0C22A3891F
:100450004FF0FF3043F04003C8F80020A381BAE713
:100460002DE9F04F936883B0924617680190002BF6
:1004700076D04FF0000B0C465D468B680A6848E06A
:10048000B4F90CC01CF4906F2FD0D4E90403A2EB94
:10049000000803EB430202EBD27208F10101521093
:1004A0002944914292BF914689460A461CF4806FC6
:1004B00039D01146019800F0E5F9064600283DD0F4
:1004C0004246216900F05EFAA28922F4906242F06D
:1004D0008002A28106EB0800A9EB08022661A8466B
:1004E0002E46A2602060C4F814903246594600F0AF
:1004F00027FDDAF80810A3682268A3EB080332444A
:10050000491BA3602260CAF8081049B3D7E900B5B7
:10051000083798461046002DF8D09D421E46AFD2AF
:10052000A8462E46E1E70146019800F0FFFA06468C
:100530000028CFD10198216900F09AFA0C21A389F3
:10054000019D43F0400329600022A3814FF0FF305A
:100550000023CAF80820CAF8043003B0BDE8F08FC1
:1005600000200023CAF8043003B0BDE8F08F00BFBC
:100570002DE9F04F1C468B8989461D06824693461D
:100580009DB003D50B69002B00F0EE80002343F2F1
:10059000200209939BF8003001277C4E0394ADF8AC
:1005A0002920002B71D05D4603E015F8013F002B98
:1005B00073D0252BF9D1B5EB0B0471D12A78002A21
:1005C00063D000234FF0FF320135CDE905230493BA
:1005D00007938DF853301A9306E02546049B801B41
:1005E00007FA00F0034304932C46052214F8011B7C
:1005F000304600F0D5F8A3460028EED1049BD9067A
:1006000044BF20228DF853201A0748BF2B22297897
:1006100048BF8DF853202A294FD1039A116804321C
:10062000002903927BDB079169782E295BD0584C17
:100630000322204600F0B4F838B14022049B001B8E
:10064000824013430BF1010B04931BF8011B06229C
:1006500050488DF8281000F0A3F8002865D04E4BC4
:10066000002B55D003A900914A4650464B4B04A994
:10067000AFF300808046B8F1FF3F06D0099B4344AA
:1006800009939BF80030002B8DD1B9F80C305B0634
:1006900079D409981DB0BDE8F08FB5EB0B04F4D008
:1006A00023465A4649465046FFF77AFE0130ECD0C1
:1006B000099B2A782344099381E7A1F13002092A92
:1006C00088BFAB46B1D8079B00E00134217803EB2B
:1006D000830302EB4303A1F13002092AF5D92E2945
:1006E000A3460793A3D19BF801102A2927D1039B86
:1006F0000BF102001A680433002A0393B8BF4FF0CD
:10070000FF339BF8021005928346B8BF05938EE72E
:10071000039B073323F0070308330393AEE74942F3
:1007200043F00203079104937EE703A900914A4630
:1007300050461A4B04A900F0BDFA80469BE70023FF
:10074000A1F13002092A0BF1010B05933FF66FAFBF
:100750001BF8011F03EB830302EB4303A1F13002FB
:10076000092AF5D9059362E7402100F08BF8C9F812
:100770000000C9F8100018B14023C9F8143005E78B
:100780000C23CAF800304FF0FF3083E72C7E0008BE
:10079000347E0008387E000800000000A103000835
:1007A0005FFA81FC810744D00346511E22B909E05B
:1007B0009A0709D0013905D31846027801336245FA
:1007C000F6D1704700207047184603290CD800293D
:1007D000F8D00346014401E08B42F3D0184613F8E9
:1007E000012B6245F8D1704710B50CEB0C24024682
:1007F00004EB044402E00439032915D9104652F8E9
:10080000043B6340A3F1013E2EEA030313F0803F53
:10081000F1D00346014401E08B4208D0184613F89A
:10082000012B6245F8D110BD10460029F1D10020FE
:1008300010BD1146C9E700BF70B5114E05463368BB
:100840000C46BBB12146284600F0F8FB431C01468C
:100850000CD0C41C24F00304A04205D02846611A21
:1008600000F0ECFB013001D0204670BD4FF0FF34AA
:10087000204670BD194600F0E1FB3060E2E700BFA2
:10088000380300202DE9F843CD1C25F00305083579
:100890000C2D38BF0C25002D064618DBA94216D8B2
:1008A000DFF8DC8000F048FBD8F80420A2B1144641
:1008B00003E0636822467BB11C4623685B1BF8D4C7
:1008C0000B2B1FD89442636854D053600CE00C2368
:1008D00033600020BDE8F88329463046FFF7ACFFBF
:1008E000431C044619D00560304600F027FB04F194
:1008F0000B00231D20F00700C21A1CBF1B1AA350B7
:10090000BDE8F88361199442256014BF5160C8F8AE
:100910000410635163684B60E6E7D8F804701FB3B6
:100920003C467F68002FFBD123683946304604EBF4
:10093000030900F083FB814516D123683046ED1A88
:100940002946FFF779FF01300ED02368D8F804203C
:100950002B442360536883B1A34203D01A465B68DB
:100960009C42FBD10023B0E70C233046336000F0FB
:10097000E5FAAEE7C8F80430B6E7C8F80470B3E7A4
:1009800038030020844641EA000313F0030349D1F1
:10099000403A23D30B6803604B6843608B688360E5
:1009A000CB68C3600B6903614B6943618B698361E9
:1009B000CB69C3610B6A03624B6A43628B6A8362D1
:1009C000CB6AC3620B6B03634B6B43638B6B8363B9
:1009D000CB6BC36340304031403ADBD230320BD373
:1009E0000B6803604B6843608B688360CB68C360AF
:1009F00010301031103AF3D20C3205D351F8043BC9
:100A000040F8043B043AF9D2043208D0D2071CBFA4
:100A100011F8013B00F8013B01D30B8803806046CD
:100A2000704700BF082A13D38B07B1D010F003031F
:100A3000AED0C3F10403D21ADB071CBF11F8013B8F
:100A400000F8013BA4D331F8023B20F8023B9FE7BA
:100A5000043AD9D3013A11F8013B00F8013BF9D22D
:100A60000B7803704B7843708B78837060467047C7
:100A7000002950D038B551F8043C0C1F002BB8BFEA
:100A8000E418054600F058FA274A13682BB1A34230
:100A90000CD92168601883422CD02846636014600A
:100AA000BDE8384000F04ABAA3420FD81A465B6846
:100AB000002BF9D111685018844217D02CD36360F1
:100AC00054602846BDE8384000F038BA1168501824
:100AD000A04214D020D8216860188342EFD1186852
:100AE0005B680844C4E900035460EAE723680B44E8
:100AF0001360E6E718685B6808442060CDE720686B
:100B00000144501883421160DBD1D3E90004014451
:100B1000C2E90014D5E770470C2328462B60BDE8D6
:100B2000384000F00BBA00BF3C0300202DE9F04133
:100B3000144641B30AB306460D4600F091FA8442CA
:100B4000074602D8B4EB500F13D821463046FFF7C2
:100B500099FE804650B1BC422246294628BF3A46FB
:100B6000FFF710FF29463046FFF782FF4046BDE8F9
:100B7000F081A8464046BDE8F081A046FFF778FF27
:100B80004046BDE8F0811146BDE8F041FFF77ABE6E
:100B90002DE9F84F92461F460A698B680C469A4227
:100BA000B8BF1A46CAF8002091F843300646DDF86F
:100BB000289013B10132CAF80020226891065FD54F
:100BC000DAF800300233CAF80030226812F0060F5B
:100BD00011461DD1E1689942D8BF114618DD4FF08A
:100BE000000804F1190B05E0E568DAF80030ED1AA9
:100BF00045450CDD01235A4639463046C847013089
:100C000008F10108F0D14FF0FF30BDE8F88F2168FE
:100C100094F84330003B18BF01238A060AD53021DF
:100C2000E21882F8431094F845105A1C224402330B
:100C300082F843103946304604F14302C847013078
:100C4000E1D0D4E902202368DAF8005003F006036B
:100C5000042B21691BD08A4220DD4FF00008521A74
:100C6000904400251A3401E0454517DA0123224655
:100C700039463046C847013005F10105F4D1C2E7D5
:100C800012F0060F0DD0003B18BF0123D2E7401B26
:100C90008A4220EAE078E2DC0028E2DC0020BDE8BD
:100CA000F88FE168DAF800309942D8BF114696DC37
:100CB000AEE700BF2DE9F04717460A7E84B00C4628
:100CC000064698460C9D01F1430C002A35D0A2F14E
:100CD0005803D9B2202969D8202B67D8DFE813F050
:100CE000E600660066006600660066006600660054
:100CF000660066006600AC00700066006600660074
:100D000066007000660066006600660021008300D1
:100D1000C60066006600B6006600830066006600D6
:100D2000EC002B682268181D6169286010061B689A
:100D300002D4520600F1E08019600023E1462361ED
:100D40003B4621463046CDF8008003AAFFF720FF3E
:100D5000013020D04A46394630462369C047013029
:100D600019D02368E0689B07DDF80C9018D548453A
:100D700016DD002504F1190A04E0E068A0EB090380
:100D8000AB420DDD0123524639463046C0470130A3
:100D900005F10105F1D14FF0FF3004B0BDE8F08757
:100DA0004845B8BF484604B0BDE8F087012084F844
:100DB000422004F142090023206184F84330BFE758
:100DC0002A682368111D1806296002D4590600F10B
:100DD00095801068014600286268C0F293804FF049
:100DE0000A0E534815E020682B6810F0800F53F866
:100DF000041B02D1400648BF89B26F2A14BF4FF0CE
:100E00000A0E4FF0080E4A482B600023626884F8EF
:100E10004330002AA26051DB236823F004032360DF
:100E200000294BD1002A7BD1E146BEF1080F56D0F4
:100E3000ACEB0903236183E72A68012011680432BF
:100E40002A6004F1420984F84210B4E72B680021BB
:100E50001A1D2A60D3F8009062684846FFF7A0FC8C
:100E6000002863D0A0EB09006060A4E7236843F08A
:100E70002003236078222F4884F845202A6813F045
:100E8000800F52F8041B03D113F0400F18BF89B232
:100E90002A60DA0744BF43F02003236019B92368AE
:100EA00023F0200323604FF0100EAEE758232048B4
:100EB00084F845302368E1E72368DBE77546E146BF
:100EC000B1FBF5F30A4605FB131A194610F80A3070
:100ED000AA4209F8013DF3D2BEF1080FA8D1236858
:100EE000DD07A5D5626823699A42A1DC302309F1A8
:100EF000FF3989F800309BE719801EE7B2F900102E
:100F0000084668E72D20002AA26084F8430002DB2F
:100F100023F0040323600A250548AE464942CEE784
:100F2000037804F1420984F842307EE7606842E7C2
:100F3000407E0008547E0008704700BF704700BF25
:100F400088420ED98B1883420BD900EB020C002A81
:100F50006DD0624613F801CD994202F801CDF9D166
:100F600070470F2A0FD8034602F1FF3C002A5ED0DB
:100F70000CF1010C013B8C4411F8012B614503F885
:100F8000012FF9D1704740EA01039B0750D1A2F12C
:100F9000100370B501F1200C23F00F0501F1100EC4
:100FA00000F11004AC441B095EF8105C0EF1100E49
:100FB00044F8105C5EF81C5C103444F81C5C5EF86D
:100FC000185C44F8185C5EF8145CE64544F8145C60
:100FD000EAD1013312F00C0F01EB031102F00F0400
:100FE00000EB031328D08E46043C24F003064FEA9E
:100FF000940C1E441C1F5EF8045B44F8045FB4426A
:10100000F9D10CF1010402F0030203EB840301EBBC
:10101000840102F1FF3C4AB10CF1010C013B8C440C
:1010200011F8012B614503F8012FF9D170BD70470C
:10103000034602F1FF3C9BE72246EAE7002238B56F
:10104000064D044608462A6005F00AFC431C00D001
:1010500038BD2B68002BFBD0236038BD4003002037
:1010600051F8043C181F002BBCBF0B58C018704728
:1010700081F0004102E000BF83F0004330B54FEA49
:1010800041044FEA430594EA050F08BF90EA020FB6
:101090001FBF54EA000C55EA020C7FEA645C7FEA49
:1010A000655C00F0E2804FEA5454D4EB5555B8BF6C
:1010B0006D420CDD2C4480EA020281EA030382EADD
:1010C000000083EA010180EA020281EA0303362D6F
:1010D00088BF30BD11F0004F4FEA01314FF4801C42
:1010E0004CEA113102D0404261EB410113F0004F54
:1010F0004FEA03334CEA133302D0524263EB43030B
:1011000094EA050F00F0A780A4F10104D5F1200EA8
:101110000DDB02FA0EFC22FA05F2801841F1000103
:1011200003FA0EF2801843FA05F359410EE0A5F1D7
:1011300020050EF1200E012A03FA0EFC28BF4CF008
:10114000020C43FA05F3C01851EBE37101F00045BE
:1011500007D54FF0000EDCF1000C7EEB00006EEBCB
:101160000101B1F5801F1BD3B1F5001F0CD3490855
:101170005FEA30004FEA3C0C04F101044FEA4452AC
:1011800012F5800F80F09A80BCF1004F08BF5FEA33
:10119000500C50F1000041EB045141EA050130BD13
:1011A0005FEA4C0C404141EB0101013C28BFB1F525
:1011B000801FE9D291F0000F04BF01460020B1FA70
:1011C00081F308BF2033A3F10B03B3F120020CDA43
:1011D0000C3208DD02F1140CC2F10C0201FA0CF021
:1011E00021FA02F10CE002F11402D8BFC2F1200C86
:1011F00001FA02F120FA0CFCDCBF41EA0C0190403C
:10120000E41AA2BF01EB0451294330BD6FEA040484
:101210001F3C1CDA0C340EDC04F11404C4F120026F
:1012200020FA04F001FA02F340EA030021FA04F381
:1012300045EA030130BDC4F10C04C4F1200220FAD8
:1012400002F001FA04F340EA0300294630BD21FA16
:1012500004F0294630BD94F0000F83F4801306BFDC
:1012600081F480110134013D4EE77FEA645C18BFD0
:101270007FEA655C29D094EA050F08BF90EA020F67
:1012800005D054EA000C04BF1946104630BD91EA5F
:10129000030F1EBF0021002030BD5FEA545C05D162
:1012A0004000494128BF41F0004130BD14F58004A1
:1012B0003CBF01F5801130BD01F0004545F0FE4115
:1012C00041F470014FF0000030BD7FEA645C1ABF4A
:1012D000194610467FEA655C1CBF0B46024650EA81
:1012E000013406BF52EA033591EA030F41F40021AD
:1012F00030BD00BF90F0000F04BF0021704730B533
:101300004FF4806404F132044FF000054FF0000107
:1013100050E700BF90F0000F04BF0021704730B5C8
:101320004FF4806404F1320410F0004548BF40429D
:101330004FF000013EE700BF42004FEAE2014FEAF2
:1013400031014FEA02701FBF12F07F4393F07F4FCD
:1013500081F06051704732F07F4208BF704793F0D0
:101360007F4F04BF41F40021704730B54FF46074E3
:1013700001F0004521F000411CE700BF50EA0102E6
:1013800008BF704730B54FF000050AE050EA01028F
:1013900008BF704730B511F0004502D5404261EBFF
:1013A00041014FF4806404F132045FEA915C3FF440
:1013B000D8AE4FF003025FEADC0C18BF03325FEADD
:1013C000DC0C18BF033202EBDC02C2F1200300FA8E
:1013D00003FC20FA02F001FA03FE40EA0E0021FAB3
:1013E00002F11444BDE600BF70B54FF0FF0C4CF4A1
:1013F000E06C1CEA11541DBF1CEA135594EA0C0F53
:1014000095EA0C0F00F0DEF82C4481EA030621EA8D
:101410004C5123EA4C5350EA013518BF52EA0335C8
:1014200041F4801143F4801338D0A0FB02CE4FF07A
:101430000005E1FB02E506F00042E0FB03E54FF0AA
:101440000006E1FB03569CF0000F18BF4EF0010EA2
:10145000A4F1FF04B6F5007F64F5407404D25FEA9E
:101460004E0E6D4146EB060642EAC62141EA555151
:101470004FEAC52040EA5E504FEACE2EB4F1FD0C93
:1014800088BFBCF5E06F1ED8BEF1004F08BF5FEA11
:10149000500E50F1000041EB045170BD06F00046C3
:1014A00046EA010140EA020081EA0301B4EB5C0470
:1014B000C2BFD4EB0C0541EA045170BD41F4801168
:1014C0004FF0000E013C00F3AB8014F1360FDEBF8D
:1014D000002001F0004170BDC4F10004203C35DA69
:1014E0000C341BDC04F11404C4F1200500FA05F3EC
:1014F00020FA04F001FA05F240EA020001F000428D
:1015000021F0004110EBD37021FA04F642EB060102
:101510005EEA430E08BF20EAD37070BDC4F10C042C
:10152000C4F1200500FA04F320FA05F001FA04F2F0
:1015300040EA020001F0004110EBD37041F10001DC
:101540005EEA430E08BF20EAD37070BDC4F12005E7
:1015500000FA05F24EEA020E20FA04F301FA05F24F
:1015600043EA020321FA04F001F0004121FA04F2F7
:1015700020EA020000EBD3705EEA430E08BF20EAC7
:10158000D37070BD94F0000F0FD101F00046400001
:1015900041EB010111F4801F08BF013CF7D041EA83
:1015A000060195F0000F18BF704703F00046520087
:1015B00043EB030313F4801F08BF013DF7D043EA58
:1015C0000603704794EA0C0F0CEA135518BF95EA0E
:1015D0000C0F0CD050EA410618BF52EA4306D1D195
:1015E00081EA030101F000414FF0000070BD50EAB4
:1015F000410606BF1046194652EA430619D094EA3E
:101600000C0F02D150EA013613D195EA0C0F05D127
:1016100052EA03361CBF104619460AD181EA03017B
:1016200001F0004141F0FE4141F470014FF0000033
:1016300070BD41F0FE4141F4780170BD70B54FF0CE
:10164000FF0C4CF4E06C1CEA11541DBF1CEA13554E
:1016500094EA0C0F95EA0C0F00F0A7F8A4EB050430
:1016600081EA030E52EA03354FEA013100F0888027
:101670004FEA03334FF0805545EA131343EA1263F0
:101680004FEA022245EA111545EA10654FEA0026A5
:101690000EF000419D4208BF964244F1FD0404F55E
:1016A000407402D25B084FEA3202B61A65EB0305BA
:1016B0005B084FEA32024FF480104FF4002CB6EB77
:1016C000020E75EB030E22BFB61A754640EA0C00F7
:1016D0005B084FEA3202B6EB020E75EB030E22BF37
:1016E000B61A754640EA5C005B084FEA3202B6EB78
:1016F000020E75EB030E22BFB61A754640EA9C0037
:101700005B084FEA3202B6EB020E75EB030E22BF06
:10171000B61A754640EADC0055EA060E18D04FEAC4
:10172000051545EA16754FEA06164FEAC30343EA64
:1017300052734FEAC2025FEA1C1CC0D111F4801F31
:101740000BD141EA00014FF000004FF0004CB6E72A
:1017500011F4801F04BF01430020B4F1FD0C88BFC9
:10176000BCF5E06F3FF6AFAEB5EB030C04BFB6EBD4
:10177000020C5FEA500C50F1000041EB045170BDC7
:101780000EF0004E4EEA113114EB5C04C2BFD4EBF4
:101790000C0541EA045170BD41F480114FF0000E78
:1017A000013C90E645EA060E8DE60CEA135594EAF4
:1017B0000C0F08BF95EA0C0F3FF43BAF94EA0C0FF7
:1017C0000AD150EA01347FF434AF95EA0C0F7FF46C
:1017D00025AF104619462CE795EA0C0F06D152EAC0
:1017E00003353FF4FDAE1046194622E750EA4106A4
:1017F00018BF52EA43067FF4C5AE50EA41047FF4B5
:101800000DAF52EA43057FF4EBAE12E74A0011D266
:1018100012F5001211D20DD56FF47873B3EB62524A
:101820000ED44FEAC12343F0004343EA505323FA56
:1018300002F070474FF00000704750EA013002D1CB
:101840004FF0FF3070474FF00000704700B585B093
:1018500000230193029303933848394A02604FF4FE
:10186000807282600122027303754FF46022C261AC
:1018700043600723036101F039FC002846D10523AA
:10188000019301220292039301A92C4801F086FAE8
:1018900000283ED1082301930223029301A927487F
:1018A00001F07CFA002837D104230193032302932B
:1018B00001A9224801F072FA002830D106230193D1
:1018C000042302930DEB03011C4801F067FA48BBA7
:1018D000072301930523029301A9184801F05EFA3A
:1018E00018BB092301930623029301A9134801F0B1
:1018F00055FAE8B9032301930723029301A90F487E
:1019000001F04CFAB8B905B05DF804FB00F084FCB6
:10191000B5E700F081FCBDE700F07EFCC4E700F015
:101920007BFCCBE700F078FCD2E700F075FCD8E751
:1019300000F072FCDEE700F06FFCE4E788030020B3
:101940000024014030B589B0002304930593069329
:1019500007930268254B9A4201D009B030BD044676
:1019600003F56C439A6942F400729A619A6902F431
:1019700000720192019A9A6942F004029A619A698E
:1019800002F004020292029A9A6942F008029A61F5
:101990009B6903F008030393039BF8230493032537
:1019A000059504A9124801F0C5FD0495059504A903
:1019B000104801F0BFFD1048104B03600023436046
:1019C00083608022C2604FF4007202614FF40062B3
:1019D000426120228261C36101F09AFC18B9064B72
:1019E00023625C62B9E700F017FCF8E700240140CD
:1019F00000080140000C01404403002008000240A0
:101A00000346002834D0D9B9D2B14E48007828B95D
:101A10004C48407810B94B48807810B94A48007853
:101A200070B1484A01231370002151709370474AE6
:101A30001360474B1B7813B1434B00221A70704759
:101A4000B1B9AAB93F48007828B13E48407810B9EA
:101A50003C48807810B93C48007848B1394B0122A5
:101A60001A7000225A709A70384B02221A60E0E70E
:101A7000D3B10029DDD0002ADBD1324B1B782BB14A
:101A8000304B5B7813B92F4B9B781BB12E4B1B78D7
:101A9000002BCED02B4B01221A705A7000229A7064
:101AA0002A4B03221A60C4E7B1B1AAB925480078CD
:101AB00028B12448407810B12248807810B12248DB
:101AC000007848B11F4B00221A70012159709A709A
:101AD0001E4B04221A60ACE7002BAAD1B1B1AAB107
:101AE000184B1B782BB9174B5B7813B1154B9B78B0
:101AF00013B1154B1B784BB1124B00221A70012207
:101B00005A709A70114B05221A6092E7002990D101
:101B1000002A8ED00B4B1B782BB90A4B5B7813B184
:101B2000084B9B781BB9084B1B78002B81D0054BC9
:101B300000221A705A7001229A70044B06221A6011
:101B400077E700BF70060020500000204406002008
:101B5000D005002008B5054B1B7803B908BD044B20
:101B60001868C0B201F004F8F8E700BFD005002003
:101B70004406002038B5394B1878394B1B7803449C
:101B8000012B0ED0374B1978374B1B780B44012BA8
:101B900028D0364B1A78364B1B781344012B40D093
:101BA00038BD324B1A782F4B1978FFF729FF314D8A
:101BB0002B685A6A304B1A80304B1B889BB2304AD4
:101BC00082FB03232F4802685B08D362C3600024B2
:101BD000546203F051FA2B685C62204B1A78204B58
:101BE0001A70DDE7214B1A78FFF70AFF214D2B68A9
:101BF0005A6A214B1A80214B1B889BB2204A82FBD8
:101C00000323204802685B08D362C3600024546247
:101C100003F032FA2B685C62124B1A78124B1A707E
:101C2000BEE7FFF7EDFE134D2B685A6A124B1A8080
:101C3000124B1B889BB2124A82FB03231148026895
:101C40005B08D362C3600024546203F015FA2B686A
:101C50005C62064B1A78064B1A70A1E7CF0500208C
:101C6000CC050020CE050020CB050020CD050020AE
:101C7000CA0500209C060020C80500205A0000204C
:101C8000ABAAAA2AE4060020014B1B68704700BFDC
:101C90002C06002030B583B00346074C2568009120
:101CA000064AC5F5007106482844FEF733FB236851
:101CB0000344236003B030BDB8030020E47D000876
:101CC000BC03002008B5094B1968002905DC002376
:101CD000064A1360064A137008BD4B1E04480A22C8
:101CE000C25489B205F0A8F9F1E700BFB80300209B
:101CF000BC03002000B583B00A4B5A6942F00102D0
:101D00005A615B6903F001030193019B00221146B4
:101D10000B2001F0B5FA0B2001F0C2FA03B05DF818
:101D200004FB00BF0010024030B589B000240494C9
:101D3000059406940794314B9A6942F010029A6117
:101D40009A6902F010020092009A9A6942F0200209
:101D50009A619A6902F020020192019A9A6942F00E
:101D600004029A619A6902F004020292029A9A6944
:101D700042F008029A619B6903F008030393039BF6
:101D80001F4D22464FF4C041284601F0E8FC4FF4B5
:101D9000C04304930123059306940223079304A9E7
:101DA000284601F0C7FB07250495164B05930694BA
:101DB00004A9154801F0BEFB202304930594069462
:101DC00004A9124801F0B6FB22460321062001F0C7
:101DD00057FA062001F064FA22460321284601F052
:101DE0004FFA284601F05CFA22460321082001F050
:101DF00047FA082001F054FA09B030BD0010024043
:101E0000001001400000311000080140000C0140AA
:101E1000064B1B880BB9054B1880044A1388C01A5F
:101E200003EB201080B21080704700BFBC0500207B
:101E300010B5474C0121204601F08AFC003818BF3C
:101E40000120444B18700221204601F081FC00382B
:101E500018BF0120404B18700421204601F078FC87
:101E6000003818BF01203D4B18703D4B01221A70FD
:101E70003C4B1B685B6A9BB23B4C2380208880B242
:101E8000FFF7C6FF394B1880208880B200F0D0FDE4
:101E9000374B1860002300E001331D2B13DC642254
:101EA00003FB02F2324909688A42F5D2642203FB3D
:101EB00002222F4909688A42EED32E4A126892B252
:101EC0002D4921F81320274B1B6800225A622B4B07
:101ED0001B78A3B11F4B1A78D2B2204B1B78DBB210
:101EE0009A4210D01B4B1A78D2B2254B1A701A4A5C
:101EF0001278D2B25A70194A1278D2B29A70214B23
:101F00001B78E3B110BD134B1A78D2B2124B1B7879
:101F1000DBB29A42E6D11A4B1A78003A18BF012276
:101F20000C490A705A78003A18BF01220A490A700F
:101F30009B78003B18BF0123084A1370DFE700F0CD
:101F40009BFB114B1868C0B200F012FEDAE700BF2D
:101F5000000801404A0600204906002048060020EB
:101F6000620000202C0700205C0000205A000020A6
:101F70002C06002040060020E40500204B0600202F
:101F800038060020D005002044060020A0EB010CFC
:101F90000098C01A00FB0CFC521A9CFBF2FC0CEBE4
:101FA00003007047064B1B880BB9054B1880044A89
:101FB0001388C01A03EB201080B21080704700BF56
:101FC000C4050020064B1B880BB9054B1880044A3A
:101FD0001388C01A03EB201080B21080704700BF36
:101FE000C2050020064B1B880BB9054B1880044A1C
:101FF0001388C01A03EB201080B21080704700BF16
:10200000C0050020064B1B880BB9054B1880044AFD
:102010001388C01A03EB201080B21080704700BFF5
:10202000BE050020000000000268674B9A4200D005
:10203000704730B583B0654C6069FFF75BF960A30A
:10204000D3E90023FFF7D0F9FFF7E0FB604B1880DE
:10205000604B9A689A689B68A089FFF7B3FF5E4D52
:102060002860208BFFF79EFF5C4B18802B689842FE
:102070005ED25B4B01221A70544D288AFFF7B2FFE3
:10208000584C2060288BFFF78DFF544B1880236835
:10209000984251D2544B01221A704C4D2889FFF7B7
:1020A000B1FF524C2060288BFFF77CFF4B4B188010
:1020B0002368984244D24E4B01221A70464B1B684B
:1020C000484A12681344494A12681344494AA2FB19
:1020D0000323C3F34F0303EB83035B009BB2464A26
:1020E00013803A4B9A88454B1A801B889BB2C3F5E4
:1020F0008C5314339BB2424A138013889BB2B3F5BE
:10210000C86F21D813889BB240F2135293421BD957
:102110003B4B188841F24E13009300234FF4C862E2
:1021200040F2145180B2FFF731FF364B188015E0B2
:102130002B4B00221A709FE72B4B00221A70ACE742
:102140002B4B00221A70B9E72D4B1B889BB2B3F5BD
:10215000C86F30D92B4B41F24E121A801B4B1A8894
:10216000294B1A80254B1B889BB240F2DC529342CC
:1021700007D8264B1B68642B03D9244A1368013BFC
:102180001360234B1A881E4B1B889BB29A4203D9BB
:102190001B4B1A881E4B1A801E4B1A88184B1B8823
:1021A0009BB29A4203D2164B1A881A4B1A80FFF739
:1021B000E1FC03B030BD134B40F214521A80CDE75E
:1021C000E1A0947B47AEA33F0024014054060020C9
:1021D000D405002000080140E0050020C6050020CD
:1021E000CF050020DC050020CE050020D80500200A
:1021F000CD050020ABAAAAAAD20500204E060020D9
:102200004C06002022060020500600204006002038
:10221000580000202406002072B6FEE700B595B0F5
:10222000282200210DEB0200FDF7E4FF00230593B7
:1022300006930793089309930193029303930493DE
:1022400001220A924FF480330B930E9202221192D4
:1022500012934FF4E01313930AA802F0EFFAD8B9DF
:102260000F23059302210691002307934FF4806208
:102270000892099305A802F013FD78B9122301937F
:102280004FF4004303930023049301A802F0BEFD22
:1022900030B915B05DF804FBFFF7BEFFFFF7BCFFD8
:1022A000FFF7BAFF30B583B0534B01221A700024F8
:1022B0005C709A7000F0FCFCFFF7B0FFFFF734FD94
:1022C000FFF718FDFFF7C2FA04F04AFC04F0D2FC55
:1022D00004F0ECFA04F022FB04F058FB0722474913
:1022E000474800F03FFE474D2146284603F096F947
:1022F0002146284603F010FA0421284603F08EF9FF
:102300000421284603F008FA0821284603F086F93C
:102310000821284603F000FA3B4D284602F0ACFEA7
:102320002B685C62394D284602F0A6FE2B685C6281
:10233000374D284602F0A0FE2B685C62642000F056
:10234000DBFC344B1C6200F0D1FC334B186000F016
:10235000CDFC324B186099E0314B1D88ADB2314B4A
:102360001C88A4B2304B19683048FFF793FC29460B
:102370002F48FFF78FFC21462E48FFF78BFCFFF715
:10238000A1FC00F0B3FC254B1860C2E01D4B1A689D
:102390000023D363936353631E4A136200F0A6FCC9
:1023A0001D4B1860C3E0244B1888244B1B880093F6
:1023B00000234FF461624FF42F7180B2FFF7E6FD06
:1023C0001F4B1880D7E01F4A1360E9E01E4B1B88A3
:1023D0001C4A1268934202D91A4A1360E0E01B4B70
:1023E0001A88184B1B689A4240F2DA80154A136823
:1023F00001331360D4E000BF7006002054060020B3
:1024000088030020740700202C070020E406002029
:102410009C060020002C01403C06002028060020DD
:102420005C0000205A0000202C060020EC7D0008F3
:10243000F07D0008F47D00085006002056000020C2
:10244000D6050020400600205E0000205400002039
:10245000704B1B78D3B1704B1B889BB2B3F5487F90
:1024600014D26E4B1A68002353639363D3636C4A90
:10247000136201236B4A13706B4A13706B4B1B681A
:10248000002B40F0BE80634B00221A70684C012183
:10249000204601F05DF9003818BF0120654B187027
:1024A0000221204601F054F9003818BF0120624B88
:1024B00018700421204601F04BF9003818BF0120A4
:1024C0005E4B1870534B1B78C3B95D4B188880B2B4
:1024D000FEF720FF00225B4BFEF786FF04460D4609
:1024E000594B1888FEF716FF02460B462046294630
:1024F000FFF7A4F8FFF78AF9544B1860544B0022F9
:102500001A8000F0F3FB534B1B68C01A14283FF6E7
:1025100023AF00F0EBFB504B1B68C01A40F2DC53BA
:10252000984204D93B4B1B78002B7FF42FAF3A4BDA
:102530001B889BB2B3F5617F8AD33C4B01221A60A2
:102540002021464801F004F9002814BF012200228E
:10255000434B1A707FF427AF2F4B1888414B1B88D1
:10256000009300234FF461624FF42F7180B2FFF7A4
:102570000DFD3D4B1880012000F0BEFB3A4B1A8840
:102580003A4B1B689A42BFF421AF394B1B882F4A44
:1025900012689342BFF417AF2C4A1368013B1360D3
:1025A0001C4B1B78002B7FF471AF0121194B197064
:1025B0001F4C204601F0CCF8003818BF01201D4BFD
:1025C00018700221204601F0C3F8003818BF01201E
:1025D000194B18700421204601F0BAF8003818BFD2
:1025E0000120164B1870164B1B889BB2952B3FF69B
:1025F0004DAF1F4B1A88154B1A600420FFF718FCCB
:1026000044E700F073FB1B4B1860084B00221A6074
:1026100039E700BF4B060020500600207407002059
:10262000002C0140610000206200002030060020E4
:10263000000801404A060020490600204806002004
:10264000D205002000002540D405002040060020CF
:1026500020060020280600203C060020000C014037
:102660006300002056000020D60500202C06002024
:102670005E0000203406002008B5694B1B78002B53
:1026800040F0DC80674B1B78EBB1674B1B78D3B90C
:10269000664B1B78BBB1664B1B782BB1644B5B78E8
:1026A00013B9634B9B7813B1624B1B785BB1624BE0
:1026B00004221A605E4A0123137000215170937046
:1026C0005C4A137008BD574B1B78EBB1564B1B7817
:1026D000D3B9564B1B78BBB9554B1B782BB1544B18
:1026E0005B7813B1524B9B7813B1524B1B785BB1A3
:1026F000514B05221A604E4B01221A70002159706D
:1027000099704C4B1A70DDE7464B1B78EBB1464B8A
:102710001B78D3B1454B1B78BBB9454B1B782BB904
:10272000434B5B7813B1424B9B7813B1414B1B7801
:102730005BB1414B06221A603D4A0123137053706E
:10274000002191703B4A1370BCE7364B1B78E3B90C
:10275000354B1B78CBB1354B1B78B3B9344B1B7859
:102760002BB9334B5B7813B1314B9B7813B9314B99
:102770001B7853B10123304A13602D4A0021117098
:10278000537091702B4A13709CE7264B1B78EBB962
:10279000254B1B78D3B1254B1B78BBB1244B1B7841
:1027A0002BB9234B5B7813B9214B9B7813B9214B81
:1027B0001B785BB1204B02221A601D4A0023137064
:1027C0000123537093701B4A13707BE7154B1B78E2
:1027D000002B7FF477AF144B1B78002B7FF472AF84
:1027E000124B1B78002B3FF46DAF114B1B782BB1B4
:1027F0000F4B5B7813B90E4B9B7823B90D4B1B78AD
:10280000002B3FF45FAF0C4B03221A60084B0022F1
:102810001A705A7001229A70064B1A7052E700BF64
:10282000600000204A0600204906002048060020DB
:10283000700600206100002044060020754B1B78C4
:102840000BB3754B1B78F3B9744B1B78DBB1744B2E
:102850001B782BB9724B5B7813B9714B9B7813B90A
:10286000704B1B787BB1704B01221A606F4B1B7849
:1028700023B96B4B1A70002159709A70694B012271
:102880001A70FFF701FA634B1B7813B3624B1B7886
:10289000FBB9624B1B78E3B9614B1B782BB1604BE2
:1028A0005B7813B95E4B9B7813B95E4B1B7883B191
:1028B0005D4B02221A605D4B1B782BB9584B0122ED
:1028C0001A7000225A709A70564B01221A70FFF744
:1028D000DBF9504B1B7813B34F4B1B78FBB14F4BBD
:1028E0001B78E3B94E4B1B782BB14D4B5B7813B97A
:1028F0004B4B9B7813B14B4B1B7883B14A4B032254
:102900001A604A4B1B782BB9454B01221A705A703A
:1029100000229A70434B01221A70FFF7B5F93D4B24
:102920001B7813BB3C4B1B78FBB13C4B1B78E3B9CA
:102930003B4B1B782BB13A4B5B7813B1384B9B78F0
:1029400013B1384B1B7883B1374B04221A60374BD5
:102950001B782BB9324B00221A70012159709A70E2
:10296000304B01221A70FFF78FF92A4B1B7813BBEB
:10297000294B1B78FBB1294B1B78E3B1284B1B7803
:102980002BB9274B5B7813B1254B9B7813B1254BA3
:102990001B7883B1244B05221A60244B1B782BB97A
:1029A0001F4B00221A7001225A709A701D4B01228F
:1029B0001A70FFF769F9174B1B78002B7FF482AE72
:1029C000154B1B78002B7FF47DAE144B1B78002B2E
:1029D0003FF478AE124B1B782BB9114B5B7813B1D7
:1029E0000F4B9B7823B90F4B1B78002B3FF46AAE3B
:1029F0000D4B06221A600D4B1B782BB9084B002299
:102A00001A705A7001229A70064B01221A70FFF751
:102A10003BF957E64A0600204906002048060020F8
:102A2000700600206100002044060020D005002030
:102A3000B0F1FF3F59D02E490A78531CDBB20B701E
:102A40002C4941F82200062B01D0002305E0284B39
:102A500000221A70F9E70133DBB2274A12789A4252
:102A6000F9D8052A2ED8511C234B1970214B53F845
:102A70002220224B1A80214B1888002836D000EBE8
:102A80004000C0001E4B93FBF0F398B21B4B188024
:102A900040F2AA53984202D91A4B00221A80B0F58C
:102AA0007A7F05D9184B1B7813B9174B01221A707E
:102AB000B0F52F7F1AD2144B00221A70134B01224B
:102AC0001A7070470B4A136851680B4491680B44A5
:102AD000D1680B4411690B44526913440C4AA2FBA0
:102AE00003239B08054A1380C5E70020704700BFF9
:102AF0007B0600207C0600207A0600207806002055
:102B0000808D5B0052000020D00500205000002086
:102B1000ABAAAAAA10B504460368B3F1804F08D047
:102B200022680D4B9A4208D022680C4B9A420ED074
:102B300010BD0B4B00221A60F2E70A4B1B781BB941
:102B4000094802F0CDFAEFE7FFF704F8F8E7074A83
:102B5000136801331360EBE70004004000080040F5
:102B60002C060020D0050020E4060020740600207A
:102B700008B5374B1B78B3B10138052813D8DFE807
:102B800000F0031324354556324B1B680022DA63EC
:102B90009A63314AC5211162304A12685A6300F0C3
:102BA000A5F82F4B186008BD2A4B1B680022DA637A
:102BB0009A63294A40F605411162284A12685A630D
:102BC00000F094F8264B1860EDE7224B1B680022BA
:102BD0005A63DA63204A4FF4456111621F4A126852
:102BE0009A6300F083F81E4B1860DCE7194B1B68F2
:102BF00000225A63DA63184A5C211162174A12688C
:102C00009A6300F073F8164B1860CCE7114B1B6801
:102C100000225A639A63104A40F20C5111620F4A23
:102C20001268DA6300F062F80D4B1860BBE7094BDD
:102C30001B6800225A639A63074A4FF4B861116215
:102C4000064A1268DA6300F051F8054B1860AAE7EB
:102C50004B06002074070020002C01404006002095
:102C60003C06002010B504460E4B1A784FF47A73D8
:102C7000B3FBF2F30C4A1068B0FBF3F000F01EFB5C
:102C800068B90F2C01D901200AE0002221464FF03B
:102C9000FF3000F0F5FA054B1C60002000E0012039
:102CA00010BD00BF640000206C0000206800002000
:102CB00008B5074A136843F010031360032000F0BF
:102CC000CDFA0F20FFF7CEFF00F05EFD002008BD1B
:102CD00000200240034A1168034B1B780B44136029
:102CE000704700BF9406002064000020014B186864
:102CF000704700BF9406002038B50446FFF7F6FF82
:102D00000546B4F1FF3F02D0044B1B781C44FFF78B
:102D1000EDFF401BA042FAD338BD00BF6400002085
:102D200008B5436A9A6A12F0500F1ED19A6A42F4AB
:102D300000729A621A68926802F46022B2F5602FFB
:102D400003D01846FFF770F908BD1A7B002AF8D1A6
:102D50009A6A22F480729A629A6A12F4805FF0D1C1
:102D60009A6A42F001029A62EBE71B6A1B6B984772
:102D7000EAE7704708B5406AFFF7FBFF08BD7047F8
:102D800008B5406A836A43F040038362C36A43F034
:102D90000403C362FFF7F3FF08BD000030B482B044
:102DA0000022019290F82420012A00F08F8003462F
:102DB000012280F824204A68062A2DD80468606B16
:102DC00002EB8202053A4FF01F0C0CFA02FC20EADB
:102DD0000C000D6805FA02F2024362630A68092AD0
:102DE00038D91C68E06802EB42021E3A4FF0070C2B
:102DF0000CFA02FC20EA0C008D6805FA02F202438C
:102E0000E2600A68103A012A34D90020002283F8CF
:102E1000242002B030BC70470C2A0DD80568286BFE
:102E200002EB8202233A1F24944020EA04000C683B
:102E3000944020432863D1E70568E86A02EB8202E8
:102E4000413A1F24944020EA04000C689440204337
:102E5000E862C3E71C68206902EB42024FF0070CEE
:102E60000CFA02FC20EA0C008D6805FA02F202431B
:102E70002261C6E71A681648824205D09A6A42F073
:102E800020029A620120C1E7906810F4000F1BD164
:102E9000906840F4000090600A68102A01D0002079
:102EA000B4E70C4A12680C49A1FB0212920C02EB27
:102EB00082025200019202E0019A013A0192019AC3
:102EC000002AF9D10020A1E700209FE70220A0E717
:102ED000002401406C00002083DE1B4330B583B02A
:102EE0000023019303689A6812F0010F33D104465E
:102EF0009A6842F001029A60184B1B68184AA2FBBC
:102F000003239B0C019302E0019B013B0193019B76
:102F1000002BF9D1FFF7EAFE054623689B6813F002
:102F2000010F16D1FFF7E2FE431B022BF5D92368F0
:102F30009B6813F0010FF0D1A36A43F01003A36262
:102F4000E36A43F00103E362002384F824300120A4
:102F500002E0002000E0002003B030BD6C00002043
:102F600083DE1B43F8B504460D4616460168444807
:102F7000814259D0434B994256D094F82430012BCA
:102F80007CD0012384F824302046FFF7A7FF0746B2
:102F900000286ED1A16A21F4706121F0010141F491
:102FA0008071A1622268374B9A4244D0A36A23F40D
:102FB0008013A362536813F4806F05D0A36A23F4CF
:102FC000405343F48053A362A36A13F4805F48D054
:102FD000E36A23F00603E362002384F82430236AC3
:102FE000294A9A62236A294ADA62236A284A1A63BA
:102FF00023686FF002021A602268936843F48073BA
:103000009360216833462A464C31206A00F0B4F9B7
:1030100023689A6802F46022B2F5602F24D09A687F
:1030200042F480129A6027E0154B5B6813F4702F0E
:10303000A3D0012720E0A3F580635B6813F4702F11
:10304000B4D0A36A43F48013A3620D4B5B6813F4FE
:10305000806FB9D0A36A23F4405343F48053A36232
:10306000B2E70023E362B7E79A6842F4A0029A60ED
:1030700002E0002384F824303846F8BD0227FBE73D
:103080000024014000280140212D0008752D000872
:10309000812D000838B503689A6812F0010F01D13C
:1030A000002038BD04469A6822F001029A60FFF7BA
:1030B0001DFE054623689B6813F0010F13D0FFF730
:1030C00015FE431B022BF5D923689B6813F0010FF3
:1030D000F0D0A36A43F01003A362E36A43F0010354
:1030E000E3620120DDE70020DBE7000000287BD061
:1030F00070B50446836A002B4DD02046FFF7CAFF07
:10310000A36A13F0100369D1002867D1A26A22F4E0
:10311000885222F0020242F00202A2626268E16971
:103120000A43217B42EA4102A568B5F5807F02D0BF
:10313000012D36D01D46267D012E35D026687168BA
:1031400021F46941294371602568AE6827493140FF
:103150001143A960A168B1F5807F01D0012902D196
:103160002369013B1B052568E96A21F470010B43C3
:10317000EB62236899681E4B0B409A4225D0A36AE4
:1031800023F0120343F01003A362E36A43F0010348
:10319000E362012027E0C36280F82430FEF7D2FB0F
:1031A000ABE74FF48075C6E731B9A169013945EA4B
:1031B000413141F40065C1E7A16A41F02001A162FB
:1031C000E16A41F00101E162B8E70023E362A36A2A
:1031D00023F0030343F00103A36204E0A36A43F076
:1031E0001003A362012070BD01207047FDF7E1FFCD
:1031F000FE0E1FFF002808DB0901C9B200F1604084
:1032000000F5614080F80013704700F00F000901DD
:10321000C9B2014B1954704714ED00E000B500F03D
:103220000700C0F1070CBCF1040F28BF4FF0040CDD
:10323000031D062B0FD9C31E4FF0FF3E0EFA0CF0F4
:1032400021EA000199400EFA03FE22EA0E0241EA49
:1032500002005DF804FB0023EEE70000074AD36894
:1032600023F4E0631B041B0C000200F4E060034342
:1032700043F0BF6343F40033D360704700ED00E0D8
:1032800010B50446054BD868C0F30220FFF7C6FF0F
:1032900001462046FFF7AEFF10BD00BF00ED00E085
:1032A000002807DB00F01F02400901239340024A77
:1032B00042F82030704700BF00E100E00138B0F173
:1032C000807F0BD24FF0E0235861054AF02182F84D
:1032D00023100020986107221A617047012070476F
:1032E00000ED00E030B40124056CAC40C56B6C60AF
:1032F000046863604368102B05D003689960036815
:10330000DA6030BC704703689A600368D960F8E7F8
:1033100050B310B402460168144B0B441448A0FB90
:1033200003031B099B001364124BD363022382F82F
:10333000213008686FF30D10536894682343D468F4
:103340002343146923435469234394692343D46971
:10335000234303430B6000209063012382F8213054
:1033600082F8200010BC704701207047F8FFFDBFB5
:10337000CDCCCCCC0000024038B5044690F82000FB
:10338000012832D0012084F8200094F82100C0B236
:10339000012804D0002384F82030022038BD022008
:1033A00084F821000020A0632568286820F001002F
:1033B00028602046FFF796FFE36A5BB12268136836
:1033C00043F00E0313602268136843F00103136097
:1033D0000020E3E72268136823F0040313602268E7
:1033E000136843F00A031360EDE70220D6E70000FC
:1033F00038B5C36B1A6804682568016C04238B40D8
:10340000134235D015F0040F32D0236813F0200F8B
:1034100003D1236823F0040323600368434A9342E3
:1034200014D01432934218D01432934217D014326D
:10343000934217D01432934217D01432934202D0E1
:103440004FF0806203E04FF4800200E00422384B2A
:103450005A60C36A03B1984738BD4022F7E74FF47A
:103460008062F4E74FF48042F1E74FF48022EEE708
:1034700002238B4013423CD015F0020F39D0236851
:1034800013F0200F06D1236823F00A0323600123E1
:1034900080F821300368254A934214D014329342B5
:1034A0001CD0143293421BD0143293421BD01432DE
:1034B00093421BD01432934202D04FF0007203E0CB
:1034C0004FF4001200E00222194B5A60002380F8EA
:1034D0002030836A002BBFD09847BDE72022F3E756
:1034E0004FF40072F0E74FF40052EDE74FF4003272
:1034F000EAE708238B401342AED015F0080FABD09B
:10350000236823F00E032360026CC16B012303FACE
:1035100002F24A60836380F82130002380F8203073
:10352000036B002B98D0984796E700BF0800024035
:103530000000024070B582B00024A446A1E07E4D98
:10354000AB4214D00CD8A5F58015AB420FD005F5D1
:103550007025AB420BD0A5F58015AB4210D106E02B
:10356000764DAB4203D005F58035AB4208D18B6870
:10357000002B50D0012B49D04261082400E0CC68D8
:10358000BEF1FF0F49D806464FEA8C0233680F257B
:10359000954023EA050304FA02F2134333604B68B3
:1035A00013F0805F6BD0664B9A6942F001029A611A
:1035B0009B6903F001030193019B4FEA9C02951C58
:1035C000604B53F825600CF00305AD000F23AB40B2
:1035D00026EA03065C4B984226D003F580639842A6
:1035E00000F08C8003F58063984200F0898003F539
:1035F0008063984216D0042317E0CC680434BFE7F8
:10360000CC680834BCE7CC680C34B9E70261082404
:10361000B6E70024B4E70424B2E7061DACF10802C3
:103620009200B3E7032300E00023AB4033430232B0
:10363000444D45F822304B6813F4801F62D0434A52
:10364000936843EA0E0393604B6813F4001F5FD046
:103650003E4AD36843EA0E03D3604B6813F4003F3D
:103660005CD03A4A536843EA0E0353604B6813F444
:10367000803F59D0354A136843EA0E0313600CF1BA
:10368000010C0B6833FA0CF254D0012202FA0CF24E
:1036900003EA020E32EA0303F1D14B68122B3FF624
:1036A0004EAF122B3FF66CAF01A555F823F000BFCB
:1036B0006F3500087F350008013600081336000812
:1036C0008135000881350008813500088135000802
:1036D00081350008813500088135000881350008F2
:1036E00081350008813500088135000881350008E2
:1036F00081350008FB35000807360008012394E7F0
:10370000022392E7114A936823EA0E0393609BE732
:103710000E4AD36823EA0E03D3609EE70B4A536830
:1037200023EA0E035360A1E7084A136823EA0E0355
:103730001360A4E702B070BD000022100000311039
:103740000010024000000140000801400004014058
:103750008368194201D001207047002070470AB1E8
:1037600001617047090401617047000008B5054B0D
:103770005B69034200D108BD024B5861FEF758FB5C
:10378000F9E700BF0004014082B00E4B9A6942F095
:1037900001029A619A6902F001020092009ADA69C4
:1037A00042F08052DA61DB6903F080530193019BA0
:1037B000054A536823F0E06343F00073536002B09E
:1037C000704700BF001002400000014038B512F4FD
:1037D000804F44D00468B4F850309BB291F800C0D8
:1037E00003EBCC03023304EB4304B4F80044C4F30A
:1037F00009048B69A34228D31B1B8B618B697BB99E
:10380000056835F82C309BB223F4804323F0700315
:1038100083F4005343F4004343F0800325F82C3035
:1038200012F0400F0ED002680D7832F825309BB2AE
:1038300023F4E04323F0700343F4004343F0C00358
:1038400022F8253024B9204638BD00238B61D5E706
:1038500023460A894969006802F0E9FFF3E7046832
:10386000B4F850309BB291F800C003EBCC030633A0
:1038700004EB4304B4F80044C4F309048B69A34285
:103880002FD31B1B8B618B697BB9056835F82C30F6
:103890009BB223F4804323F0700383F4005343F47A
:1038A000004343F0800325F82C3012F0400F0FD175
:1038B000026891F800C032F82C309BB223F4E04348
:1038C00023F0700343F4004343F0C00322F82C308C
:1038D000002CB8D023464A894969006802F0A7FF46
:1038E000B1E700238B61CEE738B500286ED00446DF
:1038F00090F89132A3B1032384F8913200236371CD
:10390000206802F027F8234653F8040B0ECB02F090
:1039100011F850B1022384F891320125284638BDB0
:1039200080F8903203F0A8FBE5E70021206802F060
:103930001BF8034608B9024615E0022384F89132C9
:103940000125EBE702EB820104EBC1010120487481
:103950000A740020C87408624862013202EB8201D6
:10396000C9006050D2B220799042EBD816E003EB48
:10397000830204EBC202002182F8511182F8503117
:1039800082F85311C2F86011C2F8641103EB83028C
:1039900004EBC202C2F868110133DBB29842E6D8E8
:1039A000234653F8040B0ECB01F0E0FF054620B18F
:1039B000022384F891320125B0E7002363730123C9
:1039C00084F89132206802F030FBA7E70125A5E7D3
:1039D00038B590F89032012B11D00446012580F8BB
:1039E0009052006801F0ADFF2946204603F059FCD3
:1039F000206802F018FB002084F8900238BD0220F5
:103A0000FCE770B505460C46164612F0400F00F074
:103A10000E810268B2F850309BB2097803EBC10303
:103A2000023302EB4302B2F80024C2F30902A36995
:103A300093424ED99B1AA361A369002B66D1637888
:103A4000002B49D12B68B3F8502092B2134403EBFA
:103A50000113B3F80424C2F30902A3F80424B3F851
:103A600004246FEA42426FEA524292B2A3F804245D
:103A70002B686278002A3CD1B3F8502092B21344EC
:103A8000227803EB0213B3F80C24C2F30902A3F863
:103A90000C24B3F80C246FEA42426FEA524292B20D
:103AA000A3F80C242178284603F01AFB16F4804F63
:103AB00041D02A68217832F821309BB223F4E043C8
:103AC00023F0700343F4404343F0800322F8213095
:103AD00031E00023A361AFE7012BC9D12B68B3F814
:103AE000502092B2134403EB01130022A3F80424E4
:103AF000BEE7012AD6D1B3F8502092B213442278FF
:103B000003EB02130022A3F80C24CBE716F4804F3A
:103B10000DD0286830F821309BB223F4E04323F025
:103B2000700343F4404343F0800320F8213094F8BD
:103B30002430012B12D02A68217832F821309BB230
:103B400023F4E04323F0400383F0300343F40043C5
:103B500043F0800322F82130002070BD63691344D4
:103B60006361E3691344E361216A2369994224D3C1
:103B7000C91A21626278002A44D12A68B2F850102A
:103B800089B20A44217802EB0112B2F80414C1F39D
:103B90000901A2F804143E2B1BD9580913F01F0F7A
:103BA00000D10138B2F8041489B2800280B2014316
:103BB00041F40041A2F8041426E021B9002384F85E
:103BC00024301346D6E7002384F8243023620B46C2
:103BD000D0E74BB9B2F804146FEA41416FEA5141A2
:103BE00089B2A2F804140FE0590813F0010F00D0B5
:103BF0000131B2F8040480B2890289B20143A2F80B
:103C0000041401E0012A06D09BB222896169286868
:103C100002F013FA8FE72A68B2F8501089B20A440A
:103C2000217802EB011299B2A2F80414ECE70268C1
:103C3000B2F850309BB2097803EBC103063302EBB4
:103C40004302B2F80024C2F30902A36993424FD39E
:103C50009B1AA361A369002B67D16378002B4AD11B
:103C60002B68B3F8502092B2134403EB0113B3F85E
:103C70000424C2F30902A3F80424B3F804246FEA6D
:103C800042426FEA524292B2A3F804242B6862784F
:103C9000002A3DD1B3F8502092B21344227803EBAE
:103CA0000213B3F80C24C2F30902A3F80C24B3F8EE
:103CB0000C246FEA42426FEA524292B2A3F80C24FB
:103CC0002178284603F00CFA16F4804F7FF433AFC6
:103CD0002A68217832F821309BB223F4E04323F0A4
:103CE000700343F4404343F0800322F8213022E77D
:103CF0000023A361AEE7012BC8D12B68B3F8502095
:103D000092B2134403EB01130022A3F80424BDE78D
:103D1000012AD5D1B3F8502092B21344227803EB94
:103D200002130022A3F80C24CAE716F4804F0DD129
:103D3000286830F821309BB223F4E04323F070036D
:103D400043F4404343F0800320F8213094F82430BA
:103D5000012B7FF4F0AE636913446361E36913449C
:103D6000E361216A2369994224D3C91A21622A682E
:103D70006178002943D1B2F8501089B20A44217801
:103D800002EB0112B2F80C14C1F30901A2F80C14F1
:103D90003E2B1BD9580913F01F0F00D10138B2F880
:103DA0000C1489B2800280B2014341F40041A2F8B0
:103DB0000C1426E021B9002384F824301346D6E7FA
:103DC0000023236284F824300B46D0E74BB9B2F8C5
:103DD0000C146FEA41416FEA514189B2A2F80C1408
:103DE0000FE0590813F0010F00D00131B2F80C04B4
:103DF00080B2890289B20143A2F80C1401E00129C2
:103E000006D09BB262896169286802F016F992E6D1
:103E1000B2F8501089B20A44217802EB011299B22B
:103E2000A2F80C14EDE72DE9F04105462868B0F83A
:103E3000443013F4004F00F09D82B0F84440A3B228
:103E400014F00F0440F0DE8013F0100F6BD00388E5
:103E50009AB213F4006F40F0998012F4004FE5D04D
:103E6000038823F070031B051B0D43F080030380C0
:103E70002868B0F850309BB295F8502103EBC2038C
:103E8000063300EB4303B3F80034C3F30903C5F86A
:103E90006C318BB1D5F8641171B1B5F8562102F0CF
:103EA000C6FCD5F86431D5F86C211344C5F86431EB
:103EB0000021284603F008F92A68138899B213F400
:103EC000006FB3D101F44051B1F5405FAED0B2F80C
:103ED00050309BB21A44B2F80C34C3F30903A2F871
:103EE0000C34D5F860313E2B73D9590913F01F0FEC
:103EF00000D10139B2F80C349BB2890289B20B436C
:103F000043F40043A2F80C342A6813889BB223F4CC
:103F1000804323F0700383F4405343F4004343F0A1
:103F20008003138082E703889BB223F4E14323F0EC
:103F300070036FEA43436FEA53439BB203802A68DE
:103F4000B2F850309BB2297C03EBC103023302EB81
:103F50004302B2F80034C3F30903EB626A6A1A44FD
:103F60006A620021284603F0BBF86B7B002B3FF40C
:103F70005DAFAB6A002B7FF459AF6B7B2A6843F0CF
:103F80008003A2F84C3000236B734FE7B0F8503039
:103F90009BB295F8502103EBC203063300EB4303B9
:103FA000B3F80034C3F30903C5F86C31B5F85621F2
:103FB00005F5267102F03BFC2A68138823F0700394
:103FC0001B051B0D43F080031380284603F074F893
:103FD0002CE74BB9B2F80C346FEA43436FEA534312
:103FE0009BB2A2F80C348FE7590813F0010F00D0F0
:103FF0000131B2F80C3498B28B029BB20343A2F8A1
:104000000C3481E730F824309EB213F4004F50D1C5
:1040100016F0800F3FF40AAF04EB8401C9001031A1
:1040200029442A6832F824309BB223F4E14323F078
:1040300070036FEA43436FEA53439BB222F8243084
:1040400004EB840305EBC303DB7C012B00F0F2805F
:1040500016F4807F40F089812868B0F850309BB218
:1040600004EB840205EBC202167C03EBC6030233A9
:1040700000EB4303B3F80034C3F30903621C02EB03
:10408000820255F832209A4240F25281671C07EBB7
:104090008707D21A45F83720621C02EB820255F8D6
:1040A0003220002A40F04B813146284603F018F8B0
:1040B000BCE630F8243023F070031B051B0D43F0E1
:1040C000800320F8243004EB8401C90001F5A871B5
:1040D00005EB010804EB840305EBC30393F85C31A3
:1040E000002B42D12868B0F850309BB204EB840218
:1040F00005EBC20292F8502103EBC203063300EB3A
:104100004303B3F80074C7F3090717BB04EB840338
:1041100005EBC303D3F86C213A44C3F86C21D3F800
:1041200064213A44C3F86421D3F868313BB104EB0D
:10413000840305EBC303D3F860319F4275D204EBCF
:10414000840305EBC30393F85011284602F0BCFF2B
:104150005EE704EB840105EBC1013B46B1F8562153
:10416000D1F8641102F063FBD0E704EB840305EBA4
:10417000C30393F85331022B35D0296804EB840232
:1041800005EBC20292F8500131F820309BB223F4C3
:10419000E04323F0700343F4004343F0C00321F8ED
:1041A0002030286892F8502130F8223013F4804FE4
:1041B00020D0B0F850309BB203EBC203023300EBC7
:1041C0004303B3F80074C7F30907002F9ED004EB34
:1041D000840105EBC1013B46B1F85821D1F86411C7
:1041E00002F025FB92E7324641462846FFF7EEFAF9
:1041F00007468BE7B0F850309BB203EBC20306339F
:1042000000EB4303B3F80074C7F30907002F3FF432
:104210007DAF04EB840105EBC1013B46B1F85A21A7
:10422000D1F8641102F003FB70E74146286801F001
:1042300017FFEDE6631C03EB8303DB000022EA506B
:1042400004EB840305EBC3031B7F1BB316F0400F85
:104250003BD004EB840305EBC3035B7C1BBB2B68E7
:10426000B3F8502092B2134404EB840205EBC2026F
:10427000127C03EB0213B3F80424C2F30902A3F87F
:104280000424B3F804246FEA42426FEA524292B225
:10429000A3F8042404EB840405EBC404217C284621
:1042A00002F01EFFC2E5012BF4D12B68B3F85020B9
:1042B00092B2134404EB840205EBC202127C03EBBE
:1042C00002130022A3F80424E4E72B6804EB840221
:1042D00005EBC202527CD2B9B3F8502092B213441B
:1042E00004EB840205EBC202127C03EB0213B3F869
:1042F0000C24C2F30902A3F80C24B3F80C246FEACF
:1043000042426FEA524292B2A3F80C24C2E7012A59
:10431000C0D1B3F8502092B2134404EB840205EBF1
:10432000C202127C03EB02130022A3F80C24B1E7B3
:10433000621C02EB8202D2000027AF50ACE604EB15
:10434000840205EBC202566A1E445662013404EB35
:10435000840205EBC202526804EB840405EBC4043A
:104360001344636001F07CFE60E532462846FFF7A7
:1043700048FB5BE50020BDE8F08190F89032012B0E
:104380000CD010B50446012380F8903241730068C8
:1043900001F043FE002084F8900210BD0220704717
:1043A00010B584B00446006801F041FE10F4004FDF
:1043B00020D110F4806F21D110F4804F2FD110F450
:1043C000005F37D110F4805F3ED110F4006F40F0F1
:1043D000878010F4007F40F0AE8010F4807F27D0FB
:1043E0002268B2F844309BB223F480739BB2A2F8E7
:1043F00044301DE02046FFF716FD19E02268B2F8B0
:1044000044309BB223F480639BB2A2F84430204630
:1044100002F077FE00212046FFF7AFFF08E0226898
:10442000B2F844309BB223F480439BB2A2F84430EC
:1044300004B010BD2268B2F844309BB223F400539C
:104440009BB2A2F84430F3E72268B2F840309BB246
:1044500023F004039BB2A2F840302268B2F8403047
:104460009BB223F008039BB2A2F84030204602F032
:104470006BFE2268B2F844309BB223F480539BB2A7
:10448000A2F84430D4E7226832F8231004AA02EBE1
:10449000430222F8101C0133DBB2072BF3D9226848
:1044A000B2F840309BB243F00103A2F840302268DA
:1044B000B2F840309BB223F001039BB2A2F8403027
:1044C0002368B3F8442012F4806FF9D0B3F8442085
:1044D00092B222F4806292B2A3F8442000230BE04F
:1044E0000023DAE7226804A901EB430131F8101C2C
:1044F00022F823100133DBB2072BF3D92268B2F87C
:1045000040309BB243F00803A2F840302268B2F872
:1045100044309BB223F400639BB2A2F8443022687B
:10452000B2F840309BB243F00403A2F8403020467A
:1045300002F0FAFD7CE72268B2F844309BB223F423
:1045400000739BB2A2F84430204602F0D4FD6FE71E
:1045500010B50446084611F0800F26D101F0070C73
:104560000CEB8C0E4FEACE0E0EF5A87E04EB0E017E
:104570000CEB8C0C04EBCC0C4FF0000E8CF851E1E2
:1045800000F0070008700A61CB70022B1DD094F870
:104590009032012B1CD0012384F89032206801F066
:1045A000F6F9002084F8900210BD01F0070C0CEB26
:1045B0008C01C900103121440CEB8C0C04EBCC0CA9
:1045C0004FF0010E8CF811E0DAE700230B71DEE703
:1045D0000220E9E710B504460A4611F0800F1FD10A
:1045E00001F0070000EB8003DB0003F5A873E1187E
:1045F00000EB800004EBC000002380F8513102F092
:1046000007020A7094F89032012B17D0012384F826
:104610009032206801F0A0FB002084F8900210BDC9
:1046200001F0070000EB8003DB001033E11800EB22
:10463000800004EBC00001234374E0E70220EEE7B2
:1046400010B501F0070C0CEB8C01C90001F5A87145
:104650000CEB8C0E00EBCE0ECEF86421CEF8683158
:104660000024CEF86C418EF851418EF850C10144BF
:10467000006801F0F5FC204610BD01F0070101EBD8
:10468000810100EBC100D0F86C01704738B501F032
:10469000070C0CEB8C01C90010310CEB8C0E00EBFD
:1046A000CE0ECEF824200CF1010202EB820440F879
:1046B000343001258EF83450CEF8303000EBC4028F
:1046C000002454608EF811508EF810C00144006828
:1046D00001F0C6FC204638BD38B501F00705027967
:1046E000AA4235D304460B4611F0800F1ED101EBD0
:1046F0008101C90001F5A871014403EB830300EBBC
:10470000C303002283F8512101238B700D7094F8AC
:104710009032012B1ED0012384F89032206801F0E2
:1047200006FC7DB1002084F8900238BD05EB8501C0
:10473000C9001031014405EB850300EBC3030122DE
:104740005A74E1E704F52671206801F074FCE9E78A
:104750000120EAE70220E8E70B46017903F00F02A7
:10476000914234D310B5044613F0800F21D103F0E9
:10477000070202EB8201C90001F5A871014402EBB6
:10478000820200EBC202002082F8510100228A70EE
:1047900003F007030B7094F89032012B19D001231A
:1047A00084F89032206801F0E7FB002084F8900242
:1047B00010BD03F0070202EB8201C9001031014471
:1047C00002EB820200EBC20201205074DEE70120FE
:1047D00070470220ECE711F0800F0BD001F00701C9
:1047E00001EB8101C9001031084452B90273C38042
:1047F0000020704701EB8101C90001F5A871084450
:10480000F3E70122027303811B0C4381F0E70000F0
:1048100082B0084B1B68084AA2FB03235B0A00FB1B
:1048200003F3019300BF019B5A1E0192002BF9D1A3
:1048300002B070476C000020D34D6210002800F0D9
:10484000F18170B582B00446036813F0010F2CD0DB
:10485000994B5B6803F00C03042B1DD0964B5B68EF
:1048600003F00C03082B12D06368B3F5803F41D0EE
:10487000002B55D103F1804303F504331A6822F469
:1048800080321A601A6822F480221A6037E08A4B5C
:104890005B6813F4803FE7D0874B1B6813F4003F3D
:1048A00003D06368002B00F0BF81236813F0020F70
:1048B00075D0814B5B6813F00C0F5FD07E4B5B684B
:1048C00003F00C03082B54D02369002B00F08A80DE
:1048D0007A4B01221A60FEF709FA0546764B1B68EF
:1048E00013F0020F75D1FEF701FA401B0228F5D92B
:1048F00003209EE1704A136843F4803313606368B9
:1049000043B3FEF7F3F905466B4B1B6813F4003F06
:10491000CBD1FEF7EBF9401B6428F5D9032088E1E1
:10492000B3F5A02F09D0644B1A6822F480321A60C4
:104930001A6822F480221A60E1E703F18043A3F5AC
:104940003C331A6842F480221A601A6842F48032BA
:104950001A60D4E7FEF7CAF90546574B1B6813F4F3
:10496000003FA2D0FEF7C2F9401B6428F5D903200E
:104970005FE1514B5B6813F4803FA5D14E4B1B6840
:1049800013F0020F03D02369012B40F04F814A4AF4
:10499000136823F0F803616943EAC10313602368D5
:1049A00013F0080F33D0A369002B5CD0434B0122D6
:1049B000C3F88024FEF79AF905463F4B5B6A13F073
:1049C000020F21D1FEF792F9401B0228F5D90320EE
:1049D0002FE1394A136823F0F803616943EAC10300
:1049E0001360DCE7354B00221A60FEF77FF90546BD
:1049F000314B1B6813F0020FD1D0FEF777F9401B43
:104A00000228F5D9032014E10120FFF701FF2368F4
:104A100013F0040F00F09680274BDB6913F0805FE2
:104A200034D1254BDA6942F08052DA61DB6903F058
:104A300080530193019B0125214B1B6813F4807F58
:104A400026D0E368012B3DD0002B53D103F18043E6
:104A500003F504331A6A22F001021A621A6A22F07C
:104A600004021A6233E0154B0022C3F88024FEF7DB
:104A70003DF90546104B5B6A13F0020FC7D0FEF7F5
:104A800035F9401B0228F5D90320D2E00025D3E7F1
:104A90000B4A136843F480731360FEF727F9064648
:104AA000074B1B6813F4807FCBD1FEF71FF9801BE7
:104AB0006428F5D90320BCE0001002400000424207
:104AC000007000405F4A136A43F001031362E36819
:104AD00033B3FEF70BF906465A4B1B6A13F0020F6D
:104AE0002FD1FEF703F9801B41F288339842F3D9A6
:104AF00003209EE0052B09D0524B1A6A22F00102D6
:104B00001A621A6A22F004021A62E0E74D4B1A6A2E
:104B100042F004021A621A6A42F001021A62D6E7EF
:104B2000FEF7E4F80646474B1B6A13F0020F08D065
:104B3000FEF7DCF8801B41F288339842F3D903205A
:104B400077E0E5B9E369002B72D03E4A526802F083
:104B50000C02082A56D0022B17D03B4B00221A66B3
:104B6000FEF7C4F80446374B1B6813F0007F47D0AC
:104B7000FEF7BCF8001B0228F5D9032059E0314AA2
:104B8000D36923F08053D361DCE72F4B00221A66F0
:104B9000FEF7ACF805462B4B1B6813F0007F06D0E0
:104BA000FEF7A4F8401B0228F5D9032041E0236A50
:104BB000B3F5803F1AD023494B6823F47413226A5B
:104BC000606A024313434B601F4B01221A66FEF7D3
:104BD0008DF804461B4B1B6813F0007F0ED1FEF7C7
:104BE00085F8001B0228F5D9032022E0154A5368F6
:104BF00023F40033A1680B435360DCE7002018E086
:104C0000002016E0012B16D00E4B5B6803F48031B8
:104C1000226A914211D103F47013626A93420ED159
:104C2000002006E001207047012002E0012000E0A2
:104C3000002002B070BD0120FBE70120F9E7012050
:104C4000F7E700BF00100240000042420F4B5B68D4
:104C500003F00C02082A01D00D487047C3F38342C9
:104C60000C49885C13F4803F0BD0084B5B68C3F39E
:104C70004043094AD35C064A02FB00F0B0FBF3F064
:104C80007047064B03FB00F0704700BF0010024066
:104C900000127A006C7E0008687E000800093D0062
:104CA000002800F0A08070B50D460446524B1B68EA
:104CB00003F007038B420BD24F4A136823F007031C
:104CC0000B431360136803F007038B4240F08D80A1
:104CD000236813F0020F17D013F0040F04D0474AD3
:104CE000536843F4E0635360236813F0080F04D063
:104CF000424A536843F460535360404A536823F078
:104D0000F003A1680B435360236813F0010F31D007
:104D10006368012B20D0022B25D0384A126812F08C
:104D2000020F64D035494A6822F0030213434B60F6
:104D3000FDF7DCFF0646314B5B6803F00C0362684D
:104D4000B3EB820F16D0FDF7D1FF801B41F2883301
:104D50009842F0D9032045E0284A126812F4003F37
:104D6000E0D101203EE0254A126812F0007FD9D13F
:104D7000012037E0204B1B6803F00703AB420AD940
:104D80001D4A136823F007032B431360136803F0D5
:104D90000703AB422DD1236813F0040F06D0174A46
:104DA000536823F4E063E1680B435360236813F016
:104DB000080F07D0114A536823F46053216943EA6E
:104DC000C1035360FFF742FF0C4B5B68C3F303134F
:104DD0000B4AD35CD8400B4B18600B4B1868FDF79F
:104DE00041FF002070BD012070470120FAE701203B
:104DF000F8E70120F6E700BF002002400010024063
:104E00007C7E00086C0000206800002070B582B035
:104E10000446036813F0010F36D03F4BDB6913F0F3
:104E2000805F49D13C4BDA6942F08052DA61DB693C
:104E300003F080530193019B0125384B1B6813F449
:104E4000807F3BD0344B1B6A13F4407313D06268ED
:104E500002F440729A420ED02F4A136A23F4407033
:104E60002F490126C1F840640026C1F84064106251
:104E700013F0010F36D1284A136A23F44073616896
:104E80000B431362002D3ED1236813F0020F06D0AE
:104E9000214A536823F44043A1680B4353602368BD
:104EA00013F0100F34D01C4A536823F48003E168D8
:104EB0000B43536000202CE00025BEE7174A13681F
:104EC00043F480731360FDF711FF0646134B1B6814
:104ED00013F4807FB6D1FDF709FF801B6428F5D954
:104EE000032016E0FDF702FF06460B4B1B6A13F08A
:104EF000020FC0D1FDF7FAFE801B41F288339842C1
:104F0000F3D9032005E0D36923F08053D361BBE7D5
:104F1000002002B070BD00BF0010024000700040D1
:104F20000000424230B4026A036A23F001030362C4
:104F30004568836923F073030C681C4322F0020266
:104F40008B6813430B4A904206D0456084614A68DF
:104F50004263036230BC704723F00803CA681A43F7
:104F600022F0040325F440754A692A438D691543EC
:104F7000EBE700BF002C014030B4036A026A22F460
:104F8000807202624468C26922F073020D681543A0
:104F900023F400738A6843EA02230D4A904206D044
:104FA0004460C5614A68C263036230BC704723F441
:104FB0000063CA6843EA022323F4806324F4405464
:104FC0004A6944EA02148A6944EA0214E8E700BF25
:104FD000002C014030B4036A026A22F4805202625B
:104FE0004468C26922F4E6420D6842EA052223F4CD
:104FF00000538D6843EA0533074DA84206D044604C
:10500000C2614A680264036230BC704724F4804481
:105010004D6944EA8514F2E7002C014010B4036A9C
:10502000046A24F001040462846924F0F00C4CEA60
:10503000021223F00A030B438261036210BC704723
:1050400010B4036A046A24F010040462846924F42E
:10505000704C4CEA023223F0A00343EA0113826150
:10506000036210BC7047836823F070030B4343F066
:10507000070383607047000090F83D30DBB2012BDE
:1050800027D1022380F83D300268D36843F0010342
:10509000D3600368114A934210D0B3F1804F0DD012
:1050A000A2F59432934209D002F58062934205D072
:1050B0001A6842F001021A60002070479A6802F0F4
:1050C0000702062A07D01A6842F001021A6000207F
:1050D0007047012070470020704700BF002C01403E
:1050E0000268D36823F00103D3600368196A41F2B0
:1050F0001112114208D1196A40F24442114203D1FF
:105100001A6822F001021A60012380F83D30002065
:1051100070477047704770477047704770B50446D6
:105120000368DE681D6915F0020F10D016F0020F3B
:105130000DD06FF002021A610123037703689B69A7
:1051400013F0030F5ED0FFF7E6FF0023237715F07F
:10515000040F12D016F0040F0FD023686FF0040272
:105160001A610223237723689B6913F4407F4FD091
:105170002046FFF7D0FF0023237715F0080F12D049
:1051800016F0080F0FD023686FF008021A6104238D
:1051900023772368DB6913F0030F40D02046FFF725
:1051A000BAFF0023237715F0100F12D016F0100F5E
:1051B0000FD023686FF010021A6108232377236849
:1051C000DB6913F4407F31D02046FFF7A4FF0023B2
:1051D000237715F0010F02D016F0010F2DD115F035
:1051E000800F02D016F0800F2FD115F0400F02D0A3
:1051F00016F0400F31D115F0200F02D016F0200F1D
:1052000033D170BDFFF786FF2046FFF785FF9CE78F
:105210002046FFF77FFF2046FFF77EFFABE72046E3
:10522000FFF778FF2046FFF777FFBAE72046FFF742
:1052300071FF2046FFF770FFC9E723686FF0010296
:105240001A612046FDF766FCC9E723686FF080020B
:105250001A61204600F02AFBC7E723686FF040027E
:105260001A612046FFF759FFC5E723686FF0200257
:105270001A61204600F019FBC3E7000003681F4ACB
:1052800090420AD0B0F1804F07D0A2F594329042FC
:1052900003D002F58062904203D123F070034A6884
:1052A0001343164A90420AD0B0F1804F07D0A2F5BE
:1052B0009432904203D002F58062904203D123F4ED
:1052C0004073CA68134323F080034A6913430360A1
:1052D0008B68C3620B688362084B98420AD0012333
:1052E0004361036913F0010F03D0036923F0010345
:1052F000036170470B690363F1E700BF002C0140B5
:1053000040B310B5044690F83D30F3B1022384F861
:105310003D30214651F8040BFFF7B0FF012384F81C
:10532000463084F83E3084F83F3084F8403084F8CA
:10533000413084F8423084F8433084F8443084F8B3
:10534000453084F83D30002010BD80F83C3001F03D
:1053500055FBDBE70120704740B310B5044690F8D9
:105360003D30F3B1022384F83D30214651F8040B5F
:10537000FFF784FF012384F8463084F83E3084F838
:105380003F3084F8403084F8413084F8423084F86B
:10539000433084F8443084F8453084F83D300020B0
:1053A00010BD80F83C30FFF7B4FEDBE7012070470A
:1053B00030B4036A026A22F0100202624468826911
:1053C00022F4E6420D6842EA052223F020038D68AC
:1053D00043EA05130C4DA84206D0446082614A6836
:1053E0008263036230BC704723F08003CD6843EAD8
:1053F000051323F0400324F440644D6944EA850416
:105400008D6944EA8504E8E7002C014038B590F83E
:105410003C30012B66D004460D46012380F83C3019
:105420000C2A5AD8DFE802F0075959591B59595923
:105430003059595944000068FFF774FD2268936998
:1054400043F0080393612268936923F00403936196
:105450002268936929690B43936100203EE000684C
:10546000FFF7A6FF2268936943F400639361226803
:10547000936923F48063936122689369296943EAFD
:1054800001239361002029E00068FFF775FD226881
:10549000D36943F00803D3612268D36923F004037E
:1054A000D3612268D36929690B43D361002015E0D9
:1054B0000068FFF78FFD2268D36943F40063D3616E
:1054C0002268D36923F48063D3612268D369296990
:1054D00043EA0123D361002000E00120002384F887
:1054E0003C3038BD0220FCE710B4846824F47F4CC3
:1054F00042EA03220A4342EA0C02826010BC70476F
:1055000090F83C30012B78D010B50446012380F888
:105510003C30022380F83D300268936823F47F43D7
:1055200023F0770393600B68602B4CD023D8402B7B
:1055300054D011D8202B03D00AD80BB1102B05D191
:1055400019462068FFF78FFD002028E0012026E0A3
:10555000302BF5D0012022E0502B0AD1CA684968CF
:105560000068FFF75BFD50212068FFF77CFD0020FD
:1055700015E0012013E0B3F5805F3AD0B3F5005F8A
:1055800014D0702B37D1CB684A6889680068FFF760
:10559000ABFF2268936843F07703936000200123F8
:1055A00084F83D30002384F83C3010BDCB684A6855
:1055B00089680068FFF798FF2268936843F4804386
:1055C00093600020EBE7CA6849680068FFF738FD80
:1055D00060212068FFF747FD0020E0E7CA684968BE
:1055E0000068FFF71BFD40212068FFF73CFD00200D
:1055F000D5E70020D3E70120D1E70220704701F072
:105600001F014FF0010C0CFA01FC036A23EA0C03A2
:105610000362036A8A4013430362704710B504466D
:10562000084651BB94F83E30DBB2013B18BF012362
:10563000002B5BD1002839D1022384F83E300122AF
:1056400001462068FFF7DBFF23682A4A93423DD0DA
:105650002368284A93423ED0B3F1804F3BD0A2F555
:105660009432934237D002F58062934233D01A6865
:1056700042F001021A60002039E0042908D008290C
:105680000DD094F84130DBB2013B18BF0123CFE7C6
:1056900094F83F30DBB2013B18BF0123C8E794F810
:1056A0004030DBB2013B18BF0123C1E7042805D01D
:1056B000082807D0022384F84130C0E7022384F889
:1056C0003F30BCE7022384F84030B8E75A6C42F41C
:1056D00000425A64BCE79A6802F00702062A07D023
:1056E0001A6842F001021A60002000E0012010BD9B
:1056F0000020FCE7002C014001F00F014FF0040CEA
:105700000CFA01FC036A23EA0C030362036A8A4071
:10571000134303627047000010B50446084659BBA6
:1057200094F84230DBB2013B18BF0123002B57D164
:1057300000283AD1022384F842300422014620682E
:10574000FFF7DAFF2268536C43F400435364236885
:10575000254A934239D0B3F1804F36D0A2F5943226
:10576000934232D002F5806293422ED01A6842F002
:1057700001021A60002034E0042908D008290DD065
:1057800094F84530DBB2013B18BF0123CEE794F813
:105790004330DBB2013B18BF0123C7E794F8443024
:1057A000DBB2013B18BF0123C0E7042805D008285D
:1057B00007D0022384F84530BFE7022384F8433042
:1057C000BBE7022384F84430B7E79A6802F0070287
:1057D000062A07D01A6842F001021A60002000E091
:1057E000012010BD0020FCE7002C014090F83C2077
:1057F000012A2CD010B40346012280F83C2002225A
:1058000080F83D2002685068946820F0700C0868A9
:1058100040EA0C0050601A680E4882420AD0B2F189
:10582000804F07D0A0F59430824203D000F580600D
:10583000824204D124F0800449682143916001220E
:1058400083F83D20002083F83C0010BC7047022004
:10585000704700BF002C0140024690F83C30012BFD
:1058600021D0012380F83C30CB6823F44073886852
:10587000034323F480634868034323F40063086808
:10588000034323F480530869034323F40053486916
:10589000034323F48043C9690B4311684B64002020
:1058A00082F83C0070470220704770477047FEE75F
:1058B000FEE7FEE7FEE7FEE770477047704708B572
:1058C000FDF708FA08BD08B50120FDF74FFF08BD38
:1058D00008B50220FDF74AFF08BD08B50420FDF712
:1058E00045FF08BD08B50248FDF782FD08BD00BFB1
:1058F0004403002008B50248FEF752FD08BD00BF72
:10590000A014002008B50248FFF708FC08BD00BF3E
:105910002C07002008B50248FFF700FC08BD00BFB7
:10592000E406002008B50248FFF7F8FB08BD00BFF9
:105930009C06002084B004A800E90E00002004B0FA
:10594000704703460020A3F844004FF43F42A3F8F9
:1059500040207047B0F8403023F47C535B045B0C6C
:10596000A0F84030002070470020704784B0844683
:1059700004A800E90E000123ACF840300020ACF888
:105980004000ACF84400ACF8500004B0704710B5CB
:10599000034691F800C030F82C2092B222F4EC4279
:1059A00022F0700292B2C878032861D8DFE800F0D4
:1059B000555C0258002048F2800E42EA0E0223F89D
:1059C0002C2091F800C033F82C2092B222F4E0424F
:1059D00022F0700242EA0C0242EA0E0223F82C2066
:1059E0000A7B002A40F0DC804A78002A51D0B3F8C4
:1059F000502092B21A440C7802EB0412B1F806C09F
:105A00004FEA5C0C4FEA4C0CA2F800C40C7833F857
:105A1000242012F0400F0CD033F8242092B222F44C
:105A2000E04222F0700242F4004242F0C00223F849
:105A30002420CA78012A1DD0097833F8212092B297
:105A400022F4E04222F0400282F0200242F40042BE
:105A500042F0800223F8212017E142F40072AAE705
:105A600042F4C0620020A6E742F480620020A2E770
:105A70000120A0E7097833F8212092B222F4E04215
:105A800022F0400242F4004242F0800223F821203A
:105A9000FBE0B3F8502092B21A440C7802EB0412E7
:105AA000B1F806C04FEA5C0C4FEA4C0CA2F808C4EF
:105AB000B3F8502092B21A440C7802EB0412B2F8F8
:105AC0000CC4CCF3090CA2F80CC40C693E2C39D9D7
:105AD0004FEA541E14F01F0F01D10EF1FF3EB2F831
